{
  "contractName": "wallet",
  "abi": [
    {
      "anonymous": false,
      "inputs": [
        {
          "indexed": true,
          "internalType": "address",
          "name": "previousOwner",
          "type": "address"
        },
        {
          "indexed": true,
          "internalType": "address",
          "name": "newOwner",
          "type": "address"
        }
      ],
      "name": "OwnershipTransferred",
      "type": "event"
    },
    {
      "inputs": [],
      "name": "owner",
      "outputs": [
        {
          "internalType": "address",
          "name": "",
          "type": "address"
        }
      ],
      "stateMutability": "view",
      "type": "function",
      "constant": true
    },
    {
      "inputs": [],
      "name": "renounceOwnership",
      "outputs": [],
      "stateMutability": "nonpayable",
      "type": "function"
    },
    {
      "inputs": [
        {
          "internalType": "uint256",
          "name": "",
          "type": "uint256"
        }
      ],
      "name": "tokenList",
      "outputs": [
        {
          "internalType": "bytes32",
          "name": "",
          "type": "bytes32"
        }
      ],
      "stateMutability": "view",
      "type": "function",
      "constant": true
    },
    {
      "inputs": [
        {
          "internalType": "bytes32",
          "name": "",
          "type": "bytes32"
        }
      ],
      "name": "tokenMapping",
      "outputs": [
        {
          "internalType": "bytes32",
          "name": "ticker",
          "type": "bytes32"
        },
        {
          "internalType": "address",
          "name": "tokenAddress",
          "type": "address"
        }
      ],
      "stateMutability": "view",
      "type": "function",
      "constant": true
    },
    {
      "inputs": [
        {
          "internalType": "address",
          "name": "newOwner",
          "type": "address"
        }
      ],
      "name": "transferOwnership",
      "outputs": [],
      "stateMutability": "nonpayable",
      "type": "function"
    },
    {
      "inputs": [
        {
          "internalType": "bytes32",
          "name": "ticker",
          "type": "bytes32"
        },
        {
          "internalType": "address",
          "name": "tokenAddress",
          "type": "address"
        }
      ],
      "name": "addToken",
      "outputs": [],
      "stateMutability": "nonpayable",
      "type": "function"
    },
    {
      "inputs": [
        {
          "internalType": "uint256",
          "name": "amount",
          "type": "uint256"
        },
        {
          "internalType": "bytes32",
          "name": "ticker",
          "type": "bytes32"
        }
      ],
      "name": "deposit",
      "outputs": [],
      "stateMutability": "nonpayable",
      "type": "function"
    },
    {
      "inputs": [
        {
          "internalType": "uint256",
          "name": "amount",
          "type": "uint256"
        },
        {
          "internalType": "bytes32",
          "name": "ticker",
          "type": "bytes32"
        }
      ],
      "name": "withdraw",
      "outputs": [],
      "stateMutability": "nonpayable",
      "type": "function"
    }
  ],
  "bytecode": "0x608060405234801561001057600080fd5b5061002d61002261003260201b60201c565b61003a60201b60201c565b6100fe565b600033905090565b60008060009054906101000a900473ffffffffffffffffffffffffffffffffffffffff169050816000806101000a81548173ffffffffffffffffffffffffffffffffffffffff021916908373ffffffffffffffffffffffffffffffffffffffff1602179055508173ffffffffffffffffffffffffffffffffffffffff168173ffffffffffffffffffffffffffffffffffffffff167f8be0079c531659141344cd1fd0a4f28419497f9722a3daafe3b4186f6b6457e060405160405180910390a35050565b6110aa8061010d6000396000f3fe608060405234801561001057600080fd5b50600436106100885760003560e01c80639ead72221161005b5780639ead722214610102578063a8d2021a14610132578063c9630cb01461014e578063f2fde38b1461016a57610088565b8063667cb4ba1461008d578063715018a6146100be5780638da5cb5b146100c85780639776aacf146100e6575b600080fd5b6100a760048036038101906100a29190610b5b565b610186565b6040516100b5929190610d84565b60405180910390f35b6100c66101ca565b005b6100d0610252565b6040516100dd9190610cee565b60405180910390f35b61010060048036038101906100fb9190610b88565b61027b565b005b61011c60048036038101906101179190610bc8565b6103b6565b6040516101299190610d69565b60405180910390f35b61014c60048036038101906101479190610bf5565b6103da565b005b61016860048036038101906101639190610bf5565b610694565b005b610184600480360381019061017f9190610b01565b6108bd565b005b60016020528060005260406000206000915090508060000154908060010160009054906101000a900473ffffffffffffffffffffffffffffffffffffffff16905082565b6101d26109b5565b73ffffffffffffffffffffffffffffffffffffffff166101f0610252565b73ffffffffffffffffffffffffffffffffffffffff1614610246576040517f08c379a000000000000000000000000000000000000000000000000000000000815260040161023d90610dcd565b60405180910390fd5b61025060006109bd565b565b60008060009054906101000a900473ffffffffffffffffffffffffffffffffffffffff16905090565b6102836109b5565b73ffffffffffffffffffffffffffffffffffffffff166102a1610252565b73ffffffffffffffffffffffffffffffffffffffff16146102f7576040517f08c379a00000000000000000000000000000000000000000000000000000000081526004016102ee90610dcd565b60405180910390fd5b60405180604001604052808381526020018273ffffffffffffffffffffffffffffffffffffffff16815250600160008481526020019081526020016000206000820151816000015560208201518160010160006101000a81548173ffffffffffffffffffffffffffffffffffffffff021916908373ffffffffffffffffffffffffffffffffffffffff16021790555090505060028290806001815401808255809150506001900390600052602060002001600090919091909150555050565b600281815481106103c657600080fd5b906000526020600020016000915090505481565b80600073ffffffffffffffffffffffffffffffffffffffff166001600083815260200190815260200160002060010160009054906101000a900473ffffffffffffffffffffffffffffffffffffffff1673ffffffffffffffffffffffffffffffffffffffff161415610481576040517f08c379a000000000000000000000000000000000000000000000000000000000815260040161047890610e0d565b60405180910390fd5b82600360003373ffffffffffffffffffffffffffffffffffffffff1673ffffffffffffffffffffffffffffffffffffffff1681526020019081526020016000206000848152602001908152602001600020541015610514576040517f08c379a000000000000000000000000000000000000000000000000000000000815260040161050b90610ded565b60405180910390fd5b61057783600360003373ffffffffffffffffffffffffffffffffffffffff1673ffffffffffffffffffffffffffffffffffffffff168152602001908152602001600020600085815260200190815260200160002054610a8190919063ffffffff16565b600360003373ffffffffffffffffffffffffffffffffffffffff1673ffffffffffffffffffffffffffffffffffffffff1681526020019081526020016000206000848152602001908152602001600020819055506001600083815260200190815260200160002060010160009054906101000a900473ffffffffffffffffffffffffffffffffffffffff1673ffffffffffffffffffffffffffffffffffffffff1663a9059cbb33856040518363ffffffff1660e01b815260040161063c929190610d40565b602060405180830381600087803b15801561065657600080fd5b505af115801561066a573d6000803e3d6000fd5b505050506040513d601f19601f8201168201806040525081019061068e9190610b2e565b50505050565b80600073ffffffffffffffffffffffffffffffffffffffff166001600083815260200190815260200160002060010160009054906101000a900473ffffffffffffffffffffffffffffffffffffffff1673ffffffffffffffffffffffffffffffffffffffff16141561073b576040517f08c379a000000000000000000000000000000000000000000000000000000000815260040161073290610e0d565b60405180910390fd5b6001600083815260200190815260200160002060010160009054906101000a900473ffffffffffffffffffffffffffffffffffffffff1673ffffffffffffffffffffffffffffffffffffffff166323b872dd3330866040518463ffffffff1660e01b81526004016107ae93929190610d09565b602060405180830381600087803b1580156107c857600080fd5b505af11580156107dc573d6000803e3d6000fd5b505050506040513d601f19601f820116820180604052508101906108009190610b2e565b5061086483600360003373ffffffffffffffffffffffffffffffffffffffff1673ffffffffffffffffffffffffffffffffffffffff168152602001908152602001600020600085815260200190815260200160002054610a9790919063ffffffff16565b600360003373ffffffffffffffffffffffffffffffffffffffff1673ffffffffffffffffffffffffffffffffffffffff168152602001908152602001600020600084815260200190815260200160002081905550505050565b6108c56109b5565b73ffffffffffffffffffffffffffffffffffffffff166108e3610252565b73ffffffffffffffffffffffffffffffffffffffff1614610939576040517f08c379a000000000000000000000000000000000000000000000000000000000815260040161093090610dcd565b60405180910390fd5b600073ffffffffffffffffffffffffffffffffffffffff168173ffffffffffffffffffffffffffffffffffffffff1614156109a9576040517f08c379a00000000000000000000000000000000000000000000000000000000081526004016109a090610dad565b60405180910390fd5b6109b2816109bd565b50565b600033905090565b60008060009054906101000a900473ffffffffffffffffffffffffffffffffffffffff169050816000806101000a81548173ffffffffffffffffffffffffffffffffffffffff021916908373ffffffffffffffffffffffffffffffffffffffff1602179055508173ffffffffffffffffffffffffffffffffffffffff168173ffffffffffffffffffffffffffffffffffffffff167f8be0079c531659141344cd1fd0a4f28419497f9722a3daafe3b4186f6b6457e060405160405180910390a35050565b60008183610a8f9190610e94565b905092915050565b60008183610aa59190610e3e565b905092915050565b600081359050610abc81611018565b92915050565b600081519050610ad18161102f565b92915050565b600081359050610ae681611046565b92915050565b600081359050610afb8161105d565b92915050565b600060208284031215610b1757610b16610f49565b5b6000610b2584828501610aad565b91505092915050565b600060208284031215610b4457610b43610f49565b5b6000610b5284828501610ac2565b91505092915050565b600060208284031215610b7157610b70610f49565b5b6000610b7f84828501610ad7565b91505092915050565b60008060408385031215610b9f57610b9e610f49565b5b6000610bad85828601610ad7565b9250506020610bbe85828601610aad565b9150509250929050565b600060208284031215610bde57610bdd610f49565b5b6000610bec84828501610aec565b91505092915050565b60008060408385031215610c0c57610c0b610f49565b5b6000610c1a85828601610aec565b9250506020610c2b85828601610ad7565b9150509250929050565b610c3e81610ec8565b82525050565b610c4d81610ee6565b82525050565b6000610c60602683610e2d565b9150610c6b82610f4e565b604082019050919050565b6000610c83602083610e2d565b9150610c8e82610f9d565b602082019050919050565b6000610ca6601683610e2d565b9150610cb182610fc6565b602082019050919050565b6000610cc9601483610e2d565b9150610cd482610fef565b602082019050919050565b610ce881610f10565b82525050565b6000602082019050610d036000830184610c35565b92915050565b6000606082019050610d1e6000830186610c35565b610d2b6020830185610c35565b610d386040830184610cdf565b949350505050565b6000604082019050610d556000830185610c35565b610d626020830184610cdf565b9392505050565b6000602082019050610d7e6000830184610c44565b92915050565b6000604082019050610d996000830185610c44565b610da66020830184610c35565b9392505050565b60006020820190508181036000830152610dc681610c53565b9050919050565b60006020820190508181036000830152610de681610c76565b9050919050565b60006020820190508181036000830152610e0681610c99565b9050919050565b60006020820190508181036000830152610e2681610cbc565b9050919050565b600082825260208201905092915050565b6000610e4982610f10565b9150610e5483610f10565b9250827fffffffffffffffffffffffffffffffffffffffffffffffffffffffffffffffff03821115610e8957610e88610f1a565b5b828201905092915050565b6000610e9f82610f10565b9150610eaa83610f10565b925082821015610ebd57610ebc610f1a565b5b828203905092915050565b6000610ed382610ef0565b9050919050565b60008115159050919050565b6000819050919050565b600073ffffffffffffffffffffffffffffffffffffffff82169050919050565b6000819050919050565b7f4e487b7100000000000000000000000000000000000000000000000000000000600052601160045260246000fd5b600080fd5b7f4f776e61626c653a206e6577206f776e657220697320746865207a65726f206160008201527f6464726573730000000000000000000000000000000000000000000000000000602082015250565b7f4f776e61626c653a2063616c6c6572206973206e6f7420746865206f776e6572600082015250565b7f42616c616e6365206e6f742073756666696369656e7400000000000000000000600082015250565b7f746f6b656e20646f6573206e6f74206578697374000000000000000000000000600082015250565b61102181610ec8565b811461102c57600080fd5b50565b61103881610eda565b811461104357600080fd5b50565b61104f81610ee6565b811461105a57600080fd5b50565b61106681610f10565b811461107157600080fd5b5056fea264697066735822122096c536595759f00cb8da30a15287b946f7899d1158f82d9a3315998de7c4388a64736f6c63430008070033",
  "immutableReferences": {},
  "source": "pragma solidity ^0.8.0;\n\nimport \"../node_modules/@openzeppelin/contracts/token/ERC20/IERC20.sol\";\nimport \"../node_modules/@openzeppelin/contracts/utils/math/SafeMath.sol\";\nimport \"../node_modules/@openzeppelin/contracts/access/Ownable.sol\";\n\ncontract wallet is Ownable{\n\n    using SafeMath for uint256;\n    struct Token {\n        bytes32 ticker;\n        address tokenAddress;\n    }\n    mapping (bytes32 => Token)public tokenMapping;\n\n    bytes32 [] public tokenList;\n\n    mapping (address => mapping(bytes32 => uint256)) balances;\n\n    modifier tokenExist(bytes32 ticker){\n        require(tokenMapping[ticker].tokenAddress != address(0), \"token does not exist\");\n        _;\n    }\n    function addToken(bytes32 ticker, address tokenAddress) onlyOwner external {\n        tokenMapping[ticker] = Token(ticker, tokenAddress);\n        tokenList.push(ticker);\n    }\n\n\n    function deposit(uint amount, bytes32 ticker) tokenExist(ticker) external{\n    \n        IERC20(tokenMapping[ticker].tokenAddress).transferFrom(msg.sender, address(this), amount);\n        balances[msg.sender][ticker] = balances[msg.sender][ticker].add(amount);\n        \n\n     \n    }\n\n    function withdraw(uint amount, bytes32 ticker)tokenExist(ticker) external{\n \n        require(balances[msg.sender][ticker] >= amount, \"Balance not sufficient\");\n\n        balances[msg.sender][ticker] = balances[msg.sender][ticker].sub(amount);\n        IERC20(tokenMapping[ticker].tokenAddress).transfer(msg.sender, amount); \n    }\n}",
  "sourcePath": "/Users/joscarpio/Documents/BlockChain/IvanOntech academy/DEX/contracts/wallet.sol",
  "compiler": {
    "name": "solc",
    "version": "0.8.7+commit.e28d00a7.Emscripten.clang"
  },
  "schemaVersion": "3.4.1",
  "updatedAt": "2021-08-21T19:05:47.835Z",
  "networkType": "ethereum",
  "devdoc": {
    "kind": "dev",
    "methods": {
      "owner()": {
        "details": "Returns the address of the current owner."
      },
      "renounceOwnership()": {
        "details": "Leaves the contract without owner. It will not be possible to call `onlyOwner` functions anymore. Can only be called by the current owner. NOTE: Renouncing ownership will leave the contract without an owner, thereby removing any functionality that is only available to the owner."
      },
      "transferOwnership(address)": {
        "details": "Transfers ownership of the contract to a new account (`newOwner`). Can only be called by the current owner."
      }
    },
    "version": 1
  },
  "userdoc": {
    "kind": "user",
    "methods": {},
    "version": 1
  }
}